{
  "address": "0x9fE46736679d2D9a65F0992F2272dE9f3c7fa6e0",
  "abi": [
    {
      "inputs": [
        {
          "internalType": "address",
          "name": "_token",
          "type": "address"
        }
      ],
      "stateMutability": "nonpayable",
      "type": "constructor"
    },
    {
      "anonymous": false,
      "inputs": [
        {
          "indexed": true,
          "internalType": "address",
          "name": "owner",
          "type": "address"
        },
        {
          "indexed": true,
          "internalType": "address",
          "name": "spender",
          "type": "address"
        },
        {
          "indexed": false,
          "internalType": "uint256",
          "name": "value",
          "type": "uint256"
        }
      ],
      "name": "Approval",
      "type": "event"
    },
    {
      "anonymous": false,
      "inputs": [
        {
          "indexed": true,
          "internalType": "address",
          "name": "from",
          "type": "address"
        },
        {
          "indexed": true,
          "internalType": "address",
          "name": "to",
          "type": "address"
        },
        {
          "indexed": false,
          "internalType": "uint256",
          "name": "value",
          "type": "uint256"
        }
      ],
      "name": "Transfer",
      "type": "event"
    },
    {
      "inputs": [
        {
          "internalType": "uint256",
          "name": "_tokenAmount",
          "type": "uint256"
        }
      ],
      "name": "addLiquidity",
      "outputs": [
        {
          "internalType": "uint256",
          "name": "",
          "type": "uint256"
        }
      ],
      "stateMutability": "payable",
      "type": "function"
    },
    {
      "inputs": [
        {
          "internalType": "address",
          "name": "owner",
          "type": "address"
        },
        {
          "internalType": "address",
          "name": "spender",
          "type": "address"
        }
      ],
      "name": "allowance",
      "outputs": [
        {
          "internalType": "uint256",
          "name": "",
          "type": "uint256"
        }
      ],
      "stateMutability": "view",
      "type": "function"
    },
    {
      "inputs": [
        {
          "internalType": "address",
          "name": "spender",
          "type": "address"
        },
        {
          "internalType": "uint256",
          "name": "amount",
          "type": "uint256"
        }
      ],
      "name": "approve",
      "outputs": [
        {
          "internalType": "bool",
          "name": "",
          "type": "bool"
        }
      ],
      "stateMutability": "nonpayable",
      "type": "function"
    },
    {
      "inputs": [
        {
          "internalType": "address",
          "name": "account",
          "type": "address"
        }
      ],
      "name": "balanceOf",
      "outputs": [
        {
          "internalType": "uint256",
          "name": "",
          "type": "uint256"
        }
      ],
      "stateMutability": "view",
      "type": "function"
    },
    {
      "inputs": [],
      "name": "decimals",
      "outputs": [
        {
          "internalType": "uint8",
          "name": "",
          "type": "uint8"
        }
      ],
      "stateMutability": "view",
      "type": "function"
    },
    {
      "inputs": [
        {
          "internalType": "address",
          "name": "spender",
          "type": "address"
        },
        {
          "internalType": "uint256",
          "name": "subtractedValue",
          "type": "uint256"
        }
      ],
      "name": "decreaseAllowance",
      "outputs": [
        {
          "internalType": "bool",
          "name": "",
          "type": "bool"
        }
      ],
      "stateMutability": "nonpayable",
      "type": "function"
    },
    {
      "inputs": [
        {
          "internalType": "uint256",
          "name": "_minTokens",
          "type": "uint256"
        }
      ],
      "name": "ethToTokenSwap",
      "outputs": [],
      "stateMutability": "payable",
      "type": "function"
    },
    {
      "inputs": [
        {
          "internalType": "uint256",
          "name": "_tokenSold",
          "type": "uint256"
        }
      ],
      "name": "getEthAmount",
      "outputs": [
        {
          "internalType": "uint256",
          "name": "",
          "type": "uint256"
        }
      ],
      "stateMutability": "view",
      "type": "function"
    },
    {
      "inputs": [],
      "name": "getReserve",
      "outputs": [
        {
          "internalType": "uint256",
          "name": "",
          "type": "uint256"
        }
      ],
      "stateMutability": "view",
      "type": "function"
    },
    {
      "inputs": [
        {
          "internalType": "uint256",
          "name": "_ethSold",
          "type": "uint256"
        }
      ],
      "name": "getTokenAmount",
      "outputs": [
        {
          "internalType": "uint256",
          "name": "",
          "type": "uint256"
        }
      ],
      "stateMutability": "view",
      "type": "function"
    },
    {
      "inputs": [
        {
          "internalType": "address",
          "name": "spender",
          "type": "address"
        },
        {
          "internalType": "uint256",
          "name": "addedValue",
          "type": "uint256"
        }
      ],
      "name": "increaseAllowance",
      "outputs": [
        {
          "internalType": "bool",
          "name": "",
          "type": "bool"
        }
      ],
      "stateMutability": "nonpayable",
      "type": "function"
    },
    {
      "inputs": [],
      "name": "name",
      "outputs": [
        {
          "internalType": "string",
          "name": "",
          "type": "string"
        }
      ],
      "stateMutability": "view",
      "type": "function"
    },
    {
      "inputs": [
        {
          "internalType": "uint256",
          "name": "_amount",
          "type": "uint256"
        }
      ],
      "name": "removeLiquidity",
      "outputs": [
        {
          "internalType": "uint256",
          "name": "",
          "type": "uint256"
        },
        {
          "internalType": "uint256",
          "name": "",
          "type": "uint256"
        }
      ],
      "stateMutability": "nonpayable",
      "type": "function"
    },
    {
      "inputs": [],
      "name": "symbol",
      "outputs": [
        {
          "internalType": "string",
          "name": "",
          "type": "string"
        }
      ],
      "stateMutability": "view",
      "type": "function"
    },
    {
      "inputs": [],
      "name": "tokenAddress",
      "outputs": [
        {
          "internalType": "address",
          "name": "",
          "type": "address"
        }
      ],
      "stateMutability": "view",
      "type": "function"
    },
    {
      "inputs": [
        {
          "internalType": "uint256",
          "name": "_tokensSold",
          "type": "uint256"
        },
        {
          "internalType": "uint256",
          "name": "_minEth",
          "type": "uint256"
        }
      ],
      "name": "tokenToEthSwap",
      "outputs": [],
      "stateMutability": "nonpayable",
      "type": "function"
    },
    {
      "inputs": [],
      "name": "totalSupply",
      "outputs": [
        {
          "internalType": "uint256",
          "name": "",
          "type": "uint256"
        }
      ],
      "stateMutability": "view",
      "type": "function"
    },
    {
      "inputs": [
        {
          "internalType": "address",
          "name": "recipient",
          "type": "address"
        },
        {
          "internalType": "uint256",
          "name": "amount",
          "type": "uint256"
        }
      ],
      "name": "transfer",
      "outputs": [
        {
          "internalType": "bool",
          "name": "",
          "type": "bool"
        }
      ],
      "stateMutability": "nonpayable",
      "type": "function"
    },
    {
      "inputs": [
        {
          "internalType": "address",
          "name": "sender",
          "type": "address"
        },
        {
          "internalType": "address",
          "name": "recipient",
          "type": "address"
        },
        {
          "internalType": "uint256",
          "name": "amount",
          "type": "uint256"
        }
      ],
      "name": "transferFrom",
      "outputs": [
        {
          "internalType": "bool",
          "name": "",
          "type": "bool"
        }
      ],
      "stateMutability": "nonpayable",
      "type": "function"
    }
  ],
  "transactionHash": "0x1fa233403892dd66563d0f022c8cc2e3113891b2e97306ff2307eb472fe3c983",
  "args": [
    "0xe7f1725E7734CE288F8367e1Bb143E90bb3F0512"
  ],
  "solcInputHash": "2bbe9c8f2a41bd9ec7bf30f4ff52d702",
  "bytecode": "0x60806040523480156200001157600080fd5b5060405162001adb38038062001adb83398101604081905262000034916200023d565b604080518082018252600a8152694a756e537761702d563160b01b6020808301918252835180850190945260068452654a554e2d563160d01b908401528151919291620000849160039162000197565b5080516200009a90600490602084019062000197565b5050506001600160a01b038116620000cf5760405162461bcd60e51b8152600401620000c690620002d4565b60405180910390fd5b620000ff60405180606001604052806028815260200162001ab360289139826200012560201b62000bca1760201c565b600580546001600160a01b0319166001600160a01b039290921691909117905562000348565b6200017282826040516024016200013e9291906200026d565b60408051601f198184030181529190526020810180516001600160e01b0390811663319af33360e01b179091526200017616565b5050565b80516a636f6e736f6c652e6c6f67602083016000808483855afa5050505050565b828054620001a5906200030b565b90600052602060002090601f016020900481019282620001c9576000855562000214565b82601f10620001e457805160ff191683800117855562000214565b8280016001018555821562000214579182015b8281111562000214578251825591602001919060010190620001f7565b506200022292915062000226565b5090565b5b8082111562000222576000815560010162000227565b6000602082840312156200024f578081fd5b81516001600160a01b038116811462000266578182fd5b9392505050565b6000604082528351806040840152815b818110156200029c57602081870181015160608684010152016200027d565b81811115620002ae5782606083860101525b506001600160a01b0393909316602083015250601f91909101601f191601606001919050565b60208082526015908201527f696e76616c696420746f6b656e20616464726573730000000000000000000000604082015260600190565b6002810460018216806200032057607f821691505b602082108114156200034257634e487b7160e01b600052602260045260246000fd5b50919050565b61175b80620003586000396000f3fe6080604052600436106100f45760003560e01c80638fc7a25d116100905780638fc7a25d1461021d57806395d89b411461023d5780639c8f9f23146102525780639d76ea5814610280578063a457c2d7146102a2578063a9059cbb146102c2578063c2507ac1146102e2578063dd62ed3e14610302578063e0486c8a14610322578063f979dcd714610344576100f4565b806306fdde03146100f9578063095ea7b31461012457806318160ddd1461015157806323b872dd14610173578063313ce5671461019357806339509351146101b557806351c6590a146101d557806359bf5d39146101e857806370a08231146101fd575b600080fd5b34801561010557600080fd5b5061010e610357565b60405161011b9190611232565b60405180910390f35b34801561013057600080fd5b5061014461013f3660046110f1565b6103e9565b60405161011b9190611227565b34801561015d57600080fd5b50610166610406565b60405161011b9190611621565b34801561017f57600080fd5b5061014461018e3660046110b6565b61040c565b34801561019f57600080fd5b506101a86104a5565b60405161011b9190611638565b3480156101c157600080fd5b506101446101d03660046110f1565b6104aa565b6101666101e336600461113a565b6104fe565b3480156101f457600080fd5b506101666106c1565b34801561020957600080fd5b5061016661021836600461106a565b610747565b34801561022957600080fd5b5061016661023836600461113a565b610762565b34801561024957600080fd5b5061010e6107a1565b34801561025e57600080fd5b5061027261026d36600461113a565b6107b0565b60405161011b92919061162a565b34801561028c57600080fd5b506102956108e3565b60405161011b91906111d6565b3480156102ae57600080fd5b506101446102bd3660046110f1565b6108f2565b3480156102ce57600080fd5b506101446102dd3660046110f1565b61096b565b3480156102ee57600080fd5b506101666102fd36600461113a565b61097f565b34801561030e57600080fd5b5061016661031d366004611084565b6109b7565b34801561032e57600080fd5b5061034261033d36600461116a565b6109e2565b005b61034261035236600461113a565b610af3565b606060038054610366906116b4565b80601f0160208091040260200160405190810160405280929190818152602001828054610392906116b4565b80156103df5780601f106103b4576101008083540402835291602001916103df565b820191906000526020600020905b8154815290600101906020018083116103c257829003601f168201915b5050505050905090565b60006103fd6103f6610c13565b8484610c17565b50600192915050565b60025490565b6000610419848484610ccb565b6001600160a01b03841660009081526001602052604081208161043a610c13565b6001600160a01b03166001600160a01b03168152602001908152602001600020549050828110156104865760405162461bcd60e51b815260040161047d90611402565b60405180910390fd5b61049a85610492610c13565b858403610c17565b506001949350505050565b601290565b60006103fd6104b7610c13565b8484600160006104c5610c13565b6001600160a01b03908116825260208083019390935260409182016000908120918b16815292529020546104f99190611646565b610c17565b60006105086106c1565b6105a9576005546040516323b872dd60e01b81526001600160a01b039091169081906323b872dd90610542903390309088906004016111ea565b602060405180830381600087803b15801561055c57600080fd5b505af1158015610570573d6000803e3d6000fd5b505050506040513d601f19601f82011682018060405250810190610594919061111a565b50476105a03382610ddd565b91506106bc9050565b60006105b5344761169d565b905060006105c16106c1565b90506000826105d0833461167e565b6105da919061165e565b9050808510156105fc5760405162461bcd60e51b815260040161047d90611504565b6005546040516323b872dd60e01b81526001600160a01b039091169081906323b872dd90610632903390309087906004016111ea565b602060405180830381600087803b15801561064c57600080fd5b505af1158015610660573d6000803e3d6000fd5b505050506040513d601f19601f82011682018060405250810190610684919061111a565b50600084610690610406565b61069a903461167e565b6106a4919061165e565b90506106b03382610ddd565b94506106bc9350505050565b919050565b6005546040516370a0823160e01b81526000916001600160a01b0316906370a08231906106f29030906004016111d6565b60206040518083038186803b15801561070a57600080fd5b505afa15801561071e573d6000803e3d6000fd5b505050506040513d601f19601f820116820180604052508101906107429190611152565b905090565b6001600160a01b031660009081526020819052604090205490565b60008082116107835760405162461bcd60e51b815260040161047d906113d2565b600061078d6106c1565b905061079a838247610e93565b9392505050565b606060048054610366906116b4565b600080600083116107d35760405162461bcd60e51b815260040161047d9061137c565b60006107dd610406565b6107e7854761167e565b6107f1919061165e565b905060006107fd610406565b856108066106c1565b610810919061167e565b61081a919061165e565b90506108263386610f0c565b604051339083156108fc029084906000818181858888f19350505050158015610853573d6000803e3d6000fd5b5060055460405163a9059cbb60e01b81526001600160a01b039091169063a9059cbb90610886903390859060040161120e565b602060405180830381600087803b1580156108a057600080fd5b505af11580156108b4573d6000803e3d6000fd5b505050506040513d601f19601f820116820180604052508101906108d8919061111a565b509092509050915091565b6005546001600160a01b031681565b60008060016000610901610c13565b6001600160a01b039081168252602080830193909352604091820160009081209188168152925290205490508281101561094d5760405162461bcd60e51b815260040161047d906115a5565b610961610958610c13565b85858403610c17565b5060019392505050565b60006103fd610978610c13565b8484610ccb565b60008082116109a05760405162461bcd60e51b815260040161047d906113a4565b60006109aa6106c1565b905061079a834783610e93565b6001600160a01b03918216600090815260016020908152604080832093909416825291909152205490565b60006109ec6106c1565b905060006109fb848347610e93565b9050610a0681610fec565b610a0f84610fec565b610a1883610fec565b82811015610a385760405162461bcd60e51b815260040161047d9061148b565b6005546040516323b872dd60e01b81526001600160a01b03909116906323b872dd90610a6c903390309089906004016111ea565b602060405180830381600087803b158015610a8657600080fd5b505af1158015610a9a573d6000803e3d6000fd5b505050506040513d601f19601f82011682018060405250810190610abe919061111a565b50604051339082156108fc029083906000818181858888f19350505050158015610aec573d6000803e3d6000fd5b5050505050565b6000610afd6106c1565b90506000610b1534610b0f814761169d565b84610e93565b9050610b2081610fec565b82811015610b405760405162461bcd60e51b815260040161047d9061148b565b60055460405163a9059cbb60e01b81526001600160a01b039091169063a9059cbb90610b72903390859060040161120e565b602060405180830381600087803b158015610b8c57600080fd5b505af1158015610ba0573d6000803e3d6000fd5b505050506040513d601f19601f82011682018060405250810190610bc4919061111a565b50505050565b610c0f8282604051602401610be0929190611245565b60408051601f198184030181529190526020810180516001600160e01b031663319af33360e01b179052611032565b5050565b3390565b6001600160a01b038316610c3d5760405162461bcd60e51b815260040161047d90611537565b6001600160a01b038216610c635760405162461bcd60e51b815260040161047d906112f4565b6001600160a01b0380841660008181526001602090815260408083209487168084529490915290819020849055517f8c5be1e5ebec7d5bd14f71427d1e84f3dd0314c0f7b2291e5b200ac8c7c3b92590610cbe908590611621565b60405180910390a3505050565b6001600160a01b038316610cf15760405162461bcd60e51b815260040161047d906114bf565b6001600160a01b038216610d175760405162461bcd60e51b815260040161047d9061126f565b610d22838383610fe7565b6001600160a01b03831660009081526020819052604090205481811015610d5b5760405162461bcd60e51b815260040161047d90611336565b6001600160a01b03808516600090815260208190526040808220858503905591851681529081208054849290610d92908490611646565b92505081905550826001600160a01b0316846001600160a01b031660008051602061170683398151915284604051610dca9190611621565b60405180910390a3610bc4848484610fe7565b6001600160a01b038216610e035760405162461bcd60e51b815260040161047d906115ea565b610e0f60008383610fe7565b8060026000828254610e219190611646565b90915550506001600160a01b03821660009081526020819052604081208054839290610e4e908490611646565b90915550506040516001600160a01b0383169060009060008051602061170683398151915290610e7f908590611621565b60405180910390a3610c0f60008383610fe7565b60008083118015610ea45750600082115b610ec05760405162461bcd60e51b815260040161047d9061157b565b6000610ecd85606361167e565b90506000610edb848361167e565b9050600082610eeb87606461167e565b610ef59190611646565b9050610f01818361165e565b979650505050505050565b6001600160a01b038216610f325760405162461bcd60e51b815260040161047d9061144a565b610f3e82600083610fe7565b6001600160a01b03821660009081526020819052604090205481811015610f775760405162461bcd60e51b815260040161047d906112b2565b6001600160a01b0383166000908152602081905260408120838303905560028054849290610fa690849061169d565b90915550506040516000906001600160a01b0385169060008051602061170683398151915290610fd7908690611621565b60405180910390a3610fe7836000845b505050565b61102f816040516024016110009190611621565b60408051601f198184030181529190526020810180516001600160e01b031663f5b1bba960e01b179052611032565b50565b80516a636f6e736f6c652e6c6f67602083016000808483855afa5050505050565b80356001600160a01b03811681146106bc57600080fd5b60006020828403121561107b578081fd5b61079a82611053565b60008060408385031215611096578081fd5b61109f83611053565b91506110ad60208401611053565b90509250929050565b6000806000606084860312156110ca578081fd5b6110d384611053565b92506110e160208501611053565b9150604084013590509250925092565b60008060408385031215611103578182fd5b61110c83611053565b946020939093013593505050565b60006020828403121561112b578081fd5b8151801515811461079a578182fd5b60006020828403121561114b578081fd5b5035919050565b600060208284031215611163578081fd5b5051919050565b6000806040838503121561117c578182fd5b50508035926020909101359150565b60008151808452815b818110156111b057602081850181015186830182015201611194565b818111156111c15782602083870101525b50601f01601f19169290920160200192915050565b6001600160a01b0391909116815260200190565b6001600160a01b039384168152919092166020820152604081019190915260600190565b6001600160a01b03929092168252602082015260400190565b901515815260200190565b60006020825261079a602083018461118b565b600060408252611258604083018561118b565b905060018060a01b03831660208301529392505050565b60208082526023908201527f45524332303a207472616e7366657220746f20746865207a65726f206164647260408201526265737360e81b606082015260800190565b60208082526022908201527f45524332303a206275726e20616d6f756e7420657863656564732062616c616e604082015261636560f01b606082015260800190565b60208082526022908201527f45524332303a20617070726f766520746f20746865207a65726f206164647265604082015261737360f01b606082015260800190565b60208082526026908201527f45524332303a207472616e7366657220616d6f756e7420657863656564732062604082015265616c616e636560d01b606082015260800190565b6020808252600e908201526d1a5b9d985b1a5908185b5bdd5b9d60921b604082015260600190565b602080825260149082015273195d1a14dbdb19081a5cc81d1bdbc81cdb585b1b60621b604082015260600190565b6020808252601690820152751d1bdad95b94dbdb19081a5cc81d1bdbc81cdb585b1b60521b604082015260600190565b60208082526028908201527f45524332303a207472616e7366657220616d6f756e74206578636565647320616040820152676c6c6f77616e636560c01b606082015260800190565b60208082526021908201527f45524332303a206275726e2066726f6d20746865207a65726f206164647265736040820152607360f81b606082015260800190565b6020808252601a90820152791a5b9cdd59999a58da595b9d081bdd5d1c1d5d08185b5bdd5b9d60321b604082015260600190565b60208082526025908201527f45524332303a207472616e736665722066726f6d20746865207a65726f206164604082015264647265737360d81b606082015260800190565b6020808252601990820152781a5b9cdd59999a58da595b9d081d1bdad95b88185b5bdd5b9d603a1b604082015260600190565b60208082526024908201527f45524332303a20617070726f76652066726f6d20746865207a65726f206164646040820152637265737360e01b606082015260800190565b60208082526010908201526f696e76616c696420726573657276657360801b604082015260600190565b60208082526025908201527f45524332303a2064656372656173656420616c6c6f77616e63652062656c6f77604082015264207a65726f60d81b606082015260800190565b6020808252601f908201527f45524332303a206d696e7420746f20746865207a65726f206164647265737300604082015260600190565b90815260200190565b918252602082015260400190565b60ff91909116815260200190565b60008219821115611659576116596116ef565b500190565b60008261167957634e487b7160e01b81526012600452602481fd5b500490565b6000816000190483118215151615611698576116986116ef565b500290565b6000828210156116af576116af6116ef565b500390565b6002810460018216806116c857607f821691505b602082108114156116e957634e487b7160e01b600052602260045260246000fd5b50919050565b634e487b7160e01b600052601160045260246000fdfeddf252ad1be2c89b69c2b068fc378daa952ba7f163c4a11628f55a4df523b3efa264697066735822122014215e60415e72f8ed895b0df20bc4e657deb6933f49bd662a39e1549fc2c67b64736f6c634300080000334465706c6f79696e6720612045786368616e6765207769746820746f6b656e20616464726573733a",
  "devdoc": {
    "kind": "dev",
    "methods": {
      "allowance(address,address)": {
        "details": "See {IERC20-allowance}."
      },
      "approve(address,uint256)": {
        "details": "See {IERC20-approve}. Requirements: - `spender` cannot be the zero address."
      },
      "balanceOf(address)": {
        "details": "See {IERC20-balanceOf}."
      },
      "decimals()": {
        "details": "Returns the number of decimals used to get its user representation. For example, if `decimals` equals `2`, a balance of `505` tokens should be displayed to a user as `5,05` (`505 / 10 ** 2`). Tokens usually opt for a value of 18, imitating the relationship between Ether and Wei. This is the value {ERC20} uses, unless this function is overridden; NOTE: This information is only used for _display_ purposes: it in no way affects any of the arithmetic of the contract, including {IERC20-balanceOf} and {IERC20-transfer}."
      },
      "decreaseAllowance(address,uint256)": {
        "details": "Atomically decreases the allowance granted to `spender` by the caller. This is an alternative to {approve} that can be used as a mitigation for problems described in {IERC20-approve}. Emits an {Approval} event indicating the updated allowance. Requirements: - `spender` cannot be the zero address. - `spender` must have allowance for the caller of at least `subtractedValue`."
      },
      "increaseAllowance(address,uint256)": {
        "details": "Atomically increases the allowance granted to `spender` by the caller. This is an alternative to {approve} that can be used as a mitigation for problems described in {IERC20-approve}. Emits an {Approval} event indicating the updated allowance. Requirements: - `spender` cannot be the zero address."
      },
      "name()": {
        "details": "Returns the name of the token."
      },
      "symbol()": {
        "details": "Returns the symbol of the token, usually a shorter version of the name."
      },
      "totalSupply()": {
        "details": "See {IERC20-totalSupply}."
      },
      "transfer(address,uint256)": {
        "details": "See {IERC20-transfer}. Requirements: - `recipient` cannot be the zero address. - the caller must have a balance of at least `amount`."
      },
      "transferFrom(address,address,uint256)": {
        "details": "See {IERC20-transferFrom}. Emits an {Approval} event indicating the updated allowance. This is not required by the EIP. See the note at the beginning of {ERC20}. Requirements: - `sender` and `recipient` cannot be the zero address. - `sender` must have a balance of at least `amount`. - the caller must have allowance for ``sender``'s tokens of at least `amount`."
      }
    },
    "version": 1
  },
  "userdoc": {
    "kind": "user",
    "methods": {},
    "version": 1
  },
  "storageLayout": {
    "storage": [
      {
        "astId": 15,
        "contract": "contracts/Exchange.sol:Exchange",
        "label": "_balances",
        "offset": 0,
        "slot": "0",
        "type": "t_mapping(t_address,t_uint256)"
      },
      {
        "astId": 21,
        "contract": "contracts/Exchange.sol:Exchange",
        "label": "_allowances",
        "offset": 0,
        "slot": "1",
        "type": "t_mapping(t_address,t_mapping(t_address,t_uint256))"
      },
      {
        "astId": 23,
        "contract": "contracts/Exchange.sol:Exchange",
        "label": "_totalSupply",
        "offset": 0,
        "slot": "2",
        "type": "t_uint256"
      },
      {
        "astId": 25,
        "contract": "contracts/Exchange.sol:Exchange",
        "label": "_name",
        "offset": 0,
        "slot": "3",
        "type": "t_string_storage"
      },
      {
        "astId": 27,
        "contract": "contracts/Exchange.sol:Exchange",
        "label": "_symbol",
        "offset": 0,
        "slot": "4",
        "type": "t_string_storage"
      },
      {
        "astId": 678,
        "contract": "contracts/Exchange.sol:Exchange",
        "label": "tokenAddress",
        "offset": 0,
        "slot": "5",
        "type": "t_address"
      }
    ],
    "types": {
      "t_address": {
        "encoding": "inplace",
        "label": "address",
        "numberOfBytes": "20"
      },
      "t_mapping(t_address,t_mapping(t_address,t_uint256))": {
        "encoding": "mapping",
        "key": "t_address",
        "label": "mapping(address => mapping(address => uint256))",
        "numberOfBytes": "32",
        "value": "t_mapping(t_address,t_uint256)"
      },
      "t_mapping(t_address,t_uint256)": {
        "encoding": "mapping",
        "key": "t_address",
        "label": "mapping(address => uint256)",
        "numberOfBytes": "32",
        "value": "t_uint256"
      },
      "t_string_storage": {
        "encoding": "bytes",
        "label": "string",
        "numberOfBytes": "32"
      },
      "t_uint256": {
        "encoding": "inplace",
        "label": "uint256",
        "numberOfBytes": "32"
      }
    }
  }
}